:0400000057EF00F0C6
:060008002F8259ED00F00B
:100018002F80D8CF14F0E8CF15F0E0CF16F0FACF44
:1000280017F0FBCF18F0E9CF19F0EACF1AF0E1CFBB
:100038001BF0E2CF1CF0D9CF1DF0DACF1EF0F3CFC2
:100048001FF0F4CF20F0F6CF21F0F7CF22F0F8CF51
:1000580023F0F5CF24F0F29E9EB89E98F28E24C02D
:10006800F5FF23C0F8FF22C0F7FF21C0F6FF20C02C
:10007800F4FF1FC0F3FF1EC0DAFF1DC0D9FF1CC06C
:10008800E2FF1BC0E1FF1AC0EAFF19C0E9FF18C070
:10009800FBFF17C0FAFF16C0E0FF15C0E8FF14C049
:1000A800D8FF2F901000FDEF00F00600FACF06F001
:1000B800FBCF07F0E9CF08F0EACF09F0E1CF0AF06B
:1000C800E2CF0BF0D9CF0CF0DACF0DF0F3CF0EF072
:1000D800F4CF0FF0F6CF10F0F7CF11F0F8CF12F001
:1000E800F5CF13F0F29E9EAA0BD02E0E016E000ED5
:1000F800026E2D0E036E000E046EE6EC00F09E9A62
:10010800F28E13C0F5FF12C0F8FF11C0F7FF10C040
:10011800F6FF0FC0F4FF0EC0F3FF0DC0DAFF0CC0EE
:10012800D9FF0BC0E2FF0AC0E1FF09C0EAFF08C01F
:10013800E9FF07C0FBFF06C0FAFF2F921100D38822
:10014800D38AD38C030ED312D3A4FED7000E266E07
:10015800330E256E000E286E000E276E000E2A6ED6
:10016800010E296E000E2C6E000E2B6ECBEC00F0EB
:10017800D08EF28EF28C2D50D8B4FDD72E0E256E6F
:10018800000E266E0CEC01F0000E2D6EF4D7948E46
:10019800948C2650B06E25C0AFFFAB88AB8E2BB0C9
:1001A80002D0B89601D0B88627B002D0AC9801D05A
:1001B800AC8829B002D0AC9401D0AC84AC8A9F8AB8
:1001C8009D8A1200ABA403D0AECF05F01200ABA2FB
:1001D80003D0AB98AB88120001C0D9FF02C0DAFF88
:1001E800AECFDFFF03C0D9FF04C0DAFF010EDF6E18
:1001F80012002E0EF66E020EF76E000EF86E090053
:10020800F5CF2EF02D6A2F902F920001A3EF00F06A
:1002180025C0D9FF26C0DAFFDF50AD6E01D000F04F
:07022800ACB21200FCD7414B
:020000040020DA
:08000000FFFFFFFFFFFFFFFF00
:020000040030CA
:0E000000FF08191EFF8185FF0FC00FE00F40A3
:00000001FF
